{
  "_format": "hh-sol-artifact-1",
  "contractName": "Chai",
  "sourceName": "contracts/Chai.sol",
  "abi": [
    {
      "inputs": [],
      "stateMutability": "nonpayable",
      "type": "constructor"
    },
    {
      "anonymous": false,
      "inputs": [
        {
          "indexed": false,
          "internalType": "string",
          "name": "message",
          "type": "string"
        },
        {
          "indexed": false,
          "internalType": "string",
          "name": "name",
          "type": "string"
        },
        {
          "indexed": false,
          "internalType": "uint256",
          "name": "timestamp",
          "type": "uint256"
        },
        {
          "indexed": false,
          "internalType": "uint256",
          "name": "amount",
          "type": "uint256"
        },
        {
          "indexed": true,
          "internalType": "address",
          "name": "from",
          "type": "address"
        }
      ],
      "name": "NewMemo",
      "type": "event"
    },
    {
      "inputs": [
        {
          "internalType": "string",
          "name": "_name",
          "type": "string"
        },
        {
          "internalType": "string",
          "name": "_message",
          "type": "string"
        }
      ],
      "name": "buyChai",
      "outputs": [],
      "stateMutability": "payable",
      "type": "function"
    },
    {
      "inputs": [],
      "name": "getChaiDonationAmount",
      "outputs": [
        {
          "internalType": "uint256",
          "name": "",
          "type": "uint256"
        }
      ],
      "stateMutability": "view",
      "type": "function"
    },
    {
      "inputs": [],
      "name": "getMemos",
      "outputs": [
        {
          "components": [
            {
              "internalType": "string",
              "name": "message",
              "type": "string"
            },
            {
              "internalType": "string",
              "name": "name",
              "type": "string"
            },
            {
              "internalType": "uint256",
              "name": "timestamp",
              "type": "uint256"
            },
            {
              "internalType": "uint256",
              "name": "amount",
              "type": "uint256"
            },
            {
              "internalType": "address",
              "name": "from",
              "type": "address"
            }
          ],
          "internalType": "struct Chai.Memo[]",
          "name": "",
          "type": "tuple[]"
        }
      ],
      "stateMutability": "view",
      "type": "function"
    },
    {
      "inputs": [],
      "name": "owner",
      "outputs": [
        {
          "internalType": "address payable",
          "name": "",
          "type": "address"
        }
      ],
      "stateMutability": "view",
      "type": "function"
    },
    {
      "inputs": [],
      "name": "totalDonations",
      "outputs": [
        {
          "internalType": "uint256",
          "name": "",
          "type": "uint256"
        }
      ],
      "stateMutability": "view",
      "type": "function"
    }
  ],
  "bytecode": "0x608060405234801561001057600080fd5b5033600160006101000a81548173ffffffffffffffffffffffffffffffffffffffff021916908373ffffffffffffffffffffffffffffffffffffffff160217905550610e2d806100616000396000f3fe60806040526004361061004a5760003560e01c80636a13d8591461004f578063865c51721461006b5780638da5cb5b14610096578063de2ed893146100c1578063e2e2ef9e146100ec575b600080fd5b61006960048036038101906100649190610645565b610117565b005b34801561007757600080fd5b506100806103b3565b60405161008d91906108ef565b60405180910390f35b3480156100a257600080fd5b506100ab6105a0565b6040516100b89190610932565b60405180910390f35b3480156100cd57600080fd5b506100d66105c6565b6040516100e3919061095c565b60405180910390f35b3480156100f857600080fd5b506101016105cc565b60405161010e919061095c565b60405180910390f35b6000341161015a576040517f08c379a0000000000000000000000000000000000000000000000000000000008152600401610151906109d4565b60405180910390fd5b600160009054906101000a900473ffffffffffffffffffffffffffffffffffffffff1673ffffffffffffffffffffffffffffffffffffffff166108fc349081150290604051600060405180830381858888f193505050501580156101c2573d6000803e3d6000fd5b5034600260008282546101d59190610a23565b9250508190555060006040518060a0016040528084848080601f016020809104026020016040519081016040528093929190818152602001838380828437600081840152601f19601f82011690508083019250505050505050815260200186868080601f016020809104026020016040519081016040528093929190818152602001838380828437600081840152601f19601f8201169050808301925050505050505081526020014281526020013481526020013373ffffffffffffffffffffffffffffffffffffffff16815250908060018154018082558091505060019003906000526020600020906005020160009091909190915060008201518160000190816102e19190610c92565b5060208201518160010190816102f79190610c92565b50604082015181600201556060820151816003015560808201518160040160006101000a81548173ffffffffffffffffffffffffffffffffffffffff021916908373ffffffffffffffffffffffffffffffffffffffff16021790555050503373ffffffffffffffffffffffffffffffffffffffff167f06467e55a86d7ae4af07882b69c164daf6088c2673be1d5ac5779b14bf7a7db88383878742346040516103a596959493929190610da0565b60405180910390a250505050565b60606000805480602002602001604051908101604052809291908181526020016000905b8282101561059757838290600052602060002090600502016040518060a001604052908160008201805461040a90610ab5565b80601f016020809104026020016040519081016040528092919081815260200182805461043690610ab5565b80156104835780601f1061045857610100808354040283529160200191610483565b820191906000526020600020905b81548152906001019060200180831161046657829003601f168201915b5050505050815260200160018201805461049c90610ab5565b80601f01602080910402602001604051908101604052809291908181526020018280546104c890610ab5565b80156105155780601f106104ea57610100808354040283529160200191610515565b820191906000526020600020905b8154815290600101906020018083116104f857829003601f168201915b5050505050815260200160028201548152602001600382015481526020016004820160009054906101000a900473ffffffffffffffffffffffffffffffffffffffff1673ffffffffffffffffffffffffffffffffffffffff1673ffffffffffffffffffffffffffffffffffffffff1681525050815260200190600101906103d7565b50505050905090565b600160009054906101000a900473ffffffffffffffffffffffffffffffffffffffff1681565b60025481565b6000600254905090565b600080fd5b600080fd5b600080fd5b600080fd5b600080fd5b60008083601f840112610605576106046105e0565b5b8235905067ffffffffffffffff811115610622576106216105e5565b5b60208301915083600182028301111561063e5761063d6105ea565b5b9250929050565b6000806000806040858703121561065f5761065e6105d6565b5b600085013567ffffffffffffffff81111561067d5761067c6105db565b5b610689878288016105ef565b9450945050602085013567ffffffffffffffff8111156106ac576106ab6105db565b5b6106b8878288016105ef565b925092505092959194509250565b600081519050919050565b600082825260208201905092915050565b6000819050602082019050919050565b600081519050919050565b600082825260208201905092915050565b60005b8381101561072c578082015181840152602081019050610711565b60008484015250505050565b6000601f19601f8301169050919050565b6000610754826106f2565b61075e81856106fd565b935061076e81856020860161070e565b61077781610738565b840191505092915050565b6000819050919050565b61079581610782565b82525050565b600073ffffffffffffffffffffffffffffffffffffffff82169050919050565b60006107c68261079b565b9050919050565b6107d6816107bb565b82525050565b600060a08301600083015184820360008601526107f98282610749565b915050602083015184820360208601526108138282610749565b9150506040830151610828604086018261078c565b50606083015161083b606086018261078c565b50608083015161084e60808601826107cd565b508091505092915050565b600061086583836107dc565b905092915050565b6000602082019050919050565b6000610885826106c6565b61088f81856106d1565b9350836020820285016108a1856106e2565b8060005b858110156108dd57848403895281516108be8582610859565b94506108c98361086d565b925060208a019950506001810190506108a5565b50829750879550505050505092915050565b60006020820190508181036000830152610909818461087a565b905092915050565b600061091c8261079b565b9050919050565b61092c81610911565b82525050565b60006020820190506109476000830184610923565b92915050565b61095681610782565b82525050565b6000602082019050610971600083018461094d565b92915050565b600082825260208201905092915050565b7f416d6f756e742073686f756c642062652067726561746572207468616e203000600082015250565b60006109be601f83610977565b91506109c982610988565b602082019050919050565b600060208201905081810360008301526109ed816109b1565b9050919050565b7f4e487b7100000000000000000000000000000000000000000000000000000000600052601160045260246000fd5b6000610a2e82610782565b9150610a3983610782565b9250828201905080821115610a5157610a506109f4565b5b92915050565b7f4e487b7100000000000000000000000000000000000000000000000000000000600052604160045260246000fd5b7f4e487b7100000000000000000000000000000000000000000000000000000000600052602260045260246000fd5b60006002820490506001821680610acd57607f821691505b602082108103610ae057610adf610a86565b5b50919050565b60008190508160005260206000209050919050565b60006020601f8301049050919050565b600082821b905092915050565b600060088302610b487fffffffffffffffffffffffffffffffffffffffffffffffffffffffffffffffff82610b0b565b610b528683610b0b565b95508019841693508086168417925050509392505050565b6000819050919050565b6000610b8f610b8a610b8584610782565b610b6a565b610782565b9050919050565b6000819050919050565b610ba983610b74565b610bbd610bb582610b96565b848454610b18565b825550505050565b600090565b610bd2610bc5565b610bdd818484610ba0565b505050565b5b81811015610c0157610bf6600082610bca565b600181019050610be3565b5050565b601f821115610c4657610c1781610ae6565b610c2084610afb565b81016020851015610c2f578190505b610c43610c3b85610afb565b830182610be2565b50505b505050565b600082821c905092915050565b6000610c6960001984600802610c4b565b1980831691505092915050565b6000610c828383610c58565b9150826002028217905092915050565b610c9b826106f2565b67ffffffffffffffff811115610cb457610cb3610a57565b5b610cbe8254610ab5565b610cc9828285610c05565b600060209050601f831160018114610cfc5760008415610cea578287015190505b610cf48582610c76565b865550610d5c565b601f198416610d0a86610ae6565b60005b82811015610d3257848901518255600182019150602085019450602081019050610d0d565b86831015610d4f5784890151610d4b601f891682610c58565b8355505b6001600288020188555050505b505050505050565b82818337600083830152505050565b6000610d7f8385610977565b9350610d8c838584610d64565b610d9583610738565b840190509392505050565b60006080820190508181036000830152610dbb81888a610d73565b90508181036020830152610dd0818688610d73565b9050610ddf604083018561094d565b610dec606083018461094d565b97965050505050505056fea264697066735822122017e869386c47f8dffdfc91d82261617881cdfac32f7469fadbacf525e0d6065964736f6c63430008180033",
  "linkReferences": {},
  "deployedLinkReferences": {}
}